:100000000C945D000C9485000C9485000C94850084
:100010000C9485000C9485000C9485000C9485004C
:100020000C9485000C9485000C9485000C9485003C
:100030000C9485000C9485000C9485000C9485002C
:100040000C9449040C9485000C9410040C94D60371
:100050000C9485000C9485000C9485000C9485000C
:100060000C9485000C9485000000000024002700FB
:100070002A0000000000250028002B0004040404CE
:100080000404040402020202020203030303030342
:10009000010204081020408001020408102001021F
:1000A00004081020000000070002010000030406FD
:1000B0000000000000000000930411241FBECFEFD9
:1000C000D8E0DEBFCDBF11E0A0E0B1E0E6EDFDE09D
:1000D00002C005900D92AC3AB107D9F724E0ACEA22
:1000E000B1E001C01D92A431B207E1F710E0CDE507
:1000F000D0E004C02197FE010E94E306CC35D10771
:10010000C9F70E943D050C9496060C94000090E0FF
:10011000FC01EC55FF4F3491FC01E057FF4F249157
:10012000FC01E458FF4FE491EE2309F43BC0332374
:1001300039F1333091F038F43130A9F0323001F533
:1001400084B58F7D12C0363091F03730A1F0343055
:10015000B9F4809180008F7D03C0809180008F77FB
:10016000809380000DC084B58F7784BD09C08091D5
:10017000B0008F7703C08091B0008F7D8093B00076
:10018000F0E0EE0FFF1FEE58FF4FA591B4918FB72F
:10019000F894EC91611103C020952E2301C02E2B01
:1001A0002C938FBF0895482F50E0FA01E057FF4F7E
:1001B0009491FA01E458FF4F2491222399F030E002
:1001C000220F331FF901E859FF4FA591B491F901AE
:1001D000EE58FF4F259134912FB7F894EC91E92B0D
:1001E000EC932FBF6115710511F460E004C06F3FFF
:1001F000710519F461E00C948700FA01EC55FF4F8A
:10020000E491E330F9F048F4E130B9F0E230A1F5DF
:1002100084B5806284BD68BD0895E630E9F0E730BA
:1002200019F1E43049F5809180008062809380006C
:1002300070938B0060938A00089584B5806884BDB4
:1002400067BD0895809180008068809380007093DE
:1002500089006093880008958091B0008068809341
:10026000B0006093B30008958091B00080628093E5
:10027000B0006093B4000895603871050CF0BACFF7
:10028000B4CF6093D2017093D3018093D401909343
:10029000D501DC01CB01845D9E4FAF4FBF4F8093F2
:1002A000CE019093CF01A093D001B093D10182E011
:1002B00090E09093CD018093CC012FB7F89480917A
:1002C000C4019091C501A091C601B091C7012FBF93
:1002D0008093C8019093C901A093CA01B093CB0148
:1002E00008950F931F938FB7F8940091C401109154
:1002F000C5012091C6013091C7018FBF4091C8014F
:100300005091C9016091CA017091CB01041B150B7A
:10031000260B370B8091D2019091D301A091D4018B
:10032000B091D501083E134021053105C0F001967A
:10033000A11DB11D8093D2019093D301A093D4014C
:10034000B093D50148515C4F6F4F7F4F4093C80128
:100350005093C9016093CA017093CB01C4CF4091FF
:10036000CE015091CF016091D0017091D1018417DD
:100370009507A607B70788F1E091C201F091C30184
:10038000309759F10995611571058105910519F0AD
:100390000E94410122C08091D2019091D301A0918D
:1003A000D401B091D501845D9E4FAF4FBF4F809374
:1003B000CE019093CF01A093D001B093D10181E001
:1003C00090E02091CC013091CD01232B11F480E0FD
:1003D00090E09093CD018093CC016091D201709117
:1003E000D3018091D4019091D5011F910F9108956F
:1003F0004F925F926F927F928F929F92AF92BF9235
:10040000CF92DF92EF92FF920F931F93CF93DF93E0
:100410004B015C018091B7019091B801A091B901A5
:10042000B091BA0188169906AA06BB0609F4C2C0A3
:100430008CE3C82ED12CE12CF12CC501B401A7010D
:1004400096010E9499066093BB01CA01B901A701F8
:1004500096010E9499066093BC01CA01B90128E186
:1004600030E040E050E00E94990669017A01609313
:10047000BD01CA01B9016C5F7F4F8F4F9F4F27E0CD
:1004800030E040E050E00E9499066F5F6093BE014B
:10049000412C512C320140E004E610E0C0E9D1E0EB
:1004A000242F30E02E54384FF901E370FF273097A6
:1004B00089F4C901B8010E94BB06892B31F4C90136
:1004C000BE010E94BB06892B29F48EE691E0A0E0D4
:1004D000B0E004C08DE691E0A0E0B0E0480E591E07
:1004E0006A1E7B1ED301C201AA27BB27C816D906E4
:1004F000EA06FB0610F04F5FD3CF4093C10130975F
:1005000099F4C90164E670E00E94BB06892B39F4B6
:10051000C90160E971E00E94BB06892B29F48EE6CF
:1005200091E0A0E0B0E004C08DE691E0A0E0B0E092
:10053000481A590A6A0A7B0AC418D508E608F70857
:10054000C90164E670E00E94BB06EC01C90160E9E4
:1005500071E00E94BB06A0E9B1E020E0213039F44F
:10056000309749F4209729F4009729F402C04C9160
:1005700003C04DE101C04CE150E060E070E0C41602
:10058000D506E606F70640F0C41AD50AE60AF70AC9
:100590002F5F11962C3011F72F5F2093C001C39469
:1005A000C092BF018092B7019092B801A092B901A8
:1005B000B092BA01DF91CF911F910F91FF90EF9010
:1005C000DF90CF90BF90AF909F908F907F906F9073
:1005D0005F904F9008950E9471010E94F8018091F0
:1005E000BD0190E008950F931F93CF93DF93FC011B
:1005F000A685B7858D011395E801888199810196BB
:100600009927AD014E5F5E4FEA012881398182173B
:100610009307D1F3E80128813981A20FB31F6C93AE
:10062000A685B785B39511969C938E93A689B789B5
:100630002C9181E090E0078C02C0880F991F0A94EA
:10064000E2F7822B8C9381E081A30488F589E02D69
:1006500080818064808381E090E0DF91CF911F9161
:100660000F910895FC0181A1882329F0A489B589FF
:100670008C9186FFFBCF11A20895FC01A485B5855E
:10068000FD01F39520813181329680819181281777
:10069000390771F080819181A80FB91F8C91208159
:1006A00031812F5F3F4F33273183208390E00895BE
:1006B0008FEF9FEF0895DC011C96ED91FC911D9743
:1006C000DF01B3952D913C91119712968D919C91DC
:1006D00011972817390739F08D919C91E80FF91F70
:1006E000808190E008958FEF9FEF0895FC012485AD
:1006F0003585F901F3958081918132962081318190
:10070000821B930B992708958EED93E00C9476034A
:100710000895CF92DF92EF92FF920F931F93CF93A2
:10072000DF936C01EB017B01E40EF51E00E010E0AD
:10073000CE15DF0561F06991D601ED91FC91019034
:10074000F081E02DC6010995080F191FF1CFC801EE
:10075000DF91CF911F910F91FF90EF90DF90CF909D
:1007600008953FB7F8948091AD019091AE01A091AA
:10077000AF01B091B00126B5A89B05C02F3F19F07D
:100780000196A11DB11D3FBFBA2FA92F982F882711
:10079000820F911DA11DB11DBC01CD0142E0660F6C
:1007A000771F881F991F4A95D1F708951F920F92BE
:1007B0000FB60F9211242F933F938F939F93EF9334
:1007C000FF932091D6023091D7028091D802909168
:1007D000D9022817390731F48091C1008F7D8093A9
:1007E000C10013C0E091D802F091D902EA52FE4F45
:1007F00020818091D8029091D902019699279093F7
:10080000D9028093D8022093C600FF91EF919F9167
:100810008F913F912F910F900FBE0F901F901895C1
:100820001F920F920FB60F9211242F934F935F9345
:100830008F939F93EF93FF938091C00082FD1BC025
:100840002091C6008091DA039091DB0301969927ED
:100850004091DC035091DD038417950771F0E0911E
:10086000DA03F091DB03E652FD4F20839093DB0324
:100870008093DA0302C08091C600FF91EF919F91AF
:100880008F915F914F912F910F900FBE0F901F90FE
:1008900018951F920F920FB60F9211242F933F932A
:1008A0008F939F93AF93BF938091C4019091C501A3
:1008B000A091C601B091C7013091AC0123E0230F94
:1008C0002D3720F40196A11DB11D05C026E8230F88
:1008D0000296A11DB11D2093AC018093C401909399
:1008E000C501A093C601B093C7018091AD0190915D
:1008F000AE01A091AF01B091B0010196A11DB11D53
:100900008093AD019093AE01A093AF01B093B0017D
:10091000BF91AF919F918F913F912F910F900FBEFB
:100920000F901F9018951092E1031092E00388EE4B
:1009300093E0A0E0B0E08093E2039093E303A09300
:10094000E403B093E50380EA91E09093DF038093A2
:10095000DE038AED92E09093EB038093EA0386ED49
:1009600091E09093ED038093EC0385EC90E09093FD
:10097000EF038093EE0384EC90E09093F103809377
:10098000F00380EC90E09093F3038093F20381EC0A
:1009900090E09093F5038093F40382EC90E09093C1
:1009A000F7038093F60386EC90E09093F90380932D
:1009B000F80384E08093FA0383E08093FB0387E0ED
:1009C0008093FC0385E08093FD0381E08093FE0328
:1009D0008AE090E0909301048093000489E090E025
:1009E000909303048093020486E090E090930504C2
:1009F0008093040481E090E090930D0480930C04B4
:100A000010920704109206048FEF90E090930F0469
:100A100080930E046FEF70E08AE00E94D300109282
:100A200009041092080480910C0490910D04019720
:100A300019F46FEF70E002C060E070E07093110491
:100A400060931004809102040E94D30010920B0462
:100A500010920A0480910C0490910D04019719F4EE
:100A60006FEF70E002C060E070E070931304609379
:100A70001204809104040C94D300789484B58260AD
:100A800084BD84B5816084BD85B5826085BD85B532
:100A9000816085BD80916E00816080936E001092B0
:100AA000810080918100826080938100809181002B
:100AB00081608093810080918000816080938000BC
:100AC0008091B10084608093B1008091B00081601A
:100AD0008093B00080917A00846080937A00809146
:100AE0007A00826080937A0080917A00816080939E
:100AF0007A0080917A00806880937A001092C10019
:100B000080E38093C10181E08093C0018093BF01A5
:100B100083E18093BD011092BC011092BB0122EBD6
:100B200037E0C12C48EAD42E49E3E42E4AE5F42EFE
:100B3000E4E6F0E0C0E9D1E0C90183709927892B90
:100B400099F4C901BF010E94BB06892B31F4C90188
:100B5000BE010E94BB06892B39F480E8C80E81E5EE
:100B6000D81E81E0E81EF11C2F5F3F4F223E97E028
:100B7000390711F7C701B601605D744F8E4F9F4F63
:100B80000E94410196E0F92ECFEFD0E00E94710162
:100B90000E94F8018091BC018111A9C00E947101DD
:100BA0000E94F8018091BB018111A1C00E94EB025B
:100BB0009C01F29EC001F39E900D1124FC01E050B7
:100BC000FF4F808191819093B6018093B5010E947F
:100BD000EB029C01F29EC001F39E900D1124FC01DA
:100BE000E050FF4F828193819093B4018093B301D1
:100BF0000E94EB029C01F29EC001F39E900D112415
:100C0000FC01E050FF4F148105811093B101009366
:100C1000B201E090B301D090B4019091B501809100
:100C2000B6019093060480930704692F782F6F3FD5
:100C3000710519F014F06FEF70E077FF02C060E00B
:100C400070E080910C0490910D04019721F49E01B5
:100C5000261B370BB90170930F0460930E0480912B
:100C600000040E94D300E0920804D09209046E2D83
:100C70007D2D6F3F710519F014F06FEF70E077FF75
:100C800002C060E070E080910C0490910D04019727
:100C900021F4CE01861B970BBC0170931104609365
:100CA0001004809102040E94D30010930A04009360
:100CB0000B04612F702F6F3F710519F014F06FEF67
:100CC00070E077FF02C060E070E080910C049091CA
:100CD0000D04019721F49E01261B370BB901709377
:100CE000130460931204809104040E94D3000E94B4
:100CF000B1038B0188EE882E83E0982EA12CB12CB5
:100D00000E94B103601B710B683E734038F081E0B4
:100D1000881A9108A108B10808511C4F8114910448
:100D2000A104B10469F70E94840330CFF8940C94B5
:100D3000E906A1E21A2EAA1BBB1BFD010DC0AA1FCA
:100D4000BB1FEE1FFF1FA217B307E407F50720F034
:100D5000A21BB30BE40BF50B661F771F881F991FAF
:100D60001A9469F760957095809590959B01AC01F8
:100D7000BD01CF01089597FB072E16F4009407D00C
:100D800077FD09D00E94CF0607FC05D03EF4909570
:100D900081959F4F0895709561957F4F0895AA1B87
:100DA000BB1B51E107C0AA1FBB1FA617B70710F056
:100DB000A61BB70B881F991F5A95A9F78095909588
:100DC000BC01CD010895EE0FFF1F0590F491E02DB9
:060DD0000994F894FFCF26
:100DD600B60033005A00C70050004600EB0037004B
:100DE6002300FF007F002700FF00C9000E00EE0071
:100DF600B5003C00FF00FC00B900FF00FF00FF004B
:100E060000000000000000000000000000000000DC
:100E160000000000000000000000000000000000CC
:100E260000000000000000000000000000000000BC
:100E360000000000000000000000000000000000AC
:100E46000000040000000300130066002C002E00C2
:100E56003700AB005400220048008C0033005A00D3
:100E66001F1C1F1E1F1E1F1F1E1F1E1F000000000F
:0C0E7600F302890376033D035B033203A3
:00000001FF
